:100000009AC00000B5C00000B3C00000B1C000003D
:10001000AFC00000ADC00000ABC00000A9C0000030
:10002000A7C00000A5C000003FC3000005C4000039
:100030009FC000009DC000009BC0000099C0000050
:1000400097C0000095C0000093C0000091C0000060
:100050008FC000008DC000008BC0000089C0000070
:1000600087C000005EC1000083C0000081C00000A6
:100070007FC000007DC000007BC0000079C0000090
:1000800077C0000075C0000073C0000071C00000A0
:100090006FC000006DC000001201100102000008D6
:1000A000EB034B2000000102DC0109023E000201CB
:1000B00000C0320904000001020201000524001002
:1000C0000104240206052406000107058203080036
:1000D000FF09040100020A000000070504021000E5
:1000E00005070583021000050403090418034400F2
:1000F000650061006E002000430061006D00650036
:1001000072006100000030034C00550046004100C1
:1001100020005500530042002D00520053003200D1
:100120003300320020004100640061007000740060
:1001300065007200000011241FBECFEFD0E2DEBFC9
:10014000CDBF11E0A0E0B1E0E6E4F0E100E00BBFDC
:1001500002C007900D92AE31B107D9F712E0AEE1BF
:10016000B1E001C01D92A234B107E1F76ED069C7BA
:1001700047CF9BB19F70982B9BB90895FC01A0813C
:10018000B1816C93808191810196918380832681D6
:1001900037818217930721F484819581918380832D
:1001A0002FB7F894828593850196938782872FBF16
:1001B0000895FC01A281B3818D91B383A28326812E
:1001C0003781A217B30721F4248135813383228339
:1001D0009FB7F8942285338521503040338722879A
:1001E0009FBF0895FC012FB7F894718360837383D8
:1001F00062837583648360587F4F7783668380E86A
:1002000090E091878087138612862FBF089584B768
:10021000877F84BF88E10FB6F894809360001092C6
:1002200060000FBE90E080E80FB6F8948093610004
:10023000909361000FBE8AB1806F8AB98BB18F70C5
:100240008BB91CD284E085BD0895CF93DF93DFDFA7
:100250008AE291E066E371E0C5DF8EE191E066EB52
:1002600071E0C0DF80E185DF78948FB7F89420914A
:100270003401309135018FBF80913201909133016B
:100280002817390749F080E091E087D6BC0197FD37
:1002900003C08AE291E072DF8FB7F894C091280121
:1002A000D09129018FBFA89903C0C136D10590F024
:1002B000A89A0EC0E0912001F091210180E091E028
:1002C000608100D62197882329F48EE191E071DFC7
:1002D000209781F72FB7F8948091340190913501E0
:1002E0002FBF009749F08AE291E063DF9091C80048
:1002F00095FFFCCF8093CE0080E091E03FD6F7D40D
:10030000B4CF80EA36CF80E134CF80E091E0B6D53B
:1003100080FF02C080E601C080E92BCF80E091E041
:1003200001C51F920F920FB60F920BB60F921124B8
:100330002F933F934F935F936F937F938F939F93ED
:10034000AF93BF93EF93FF936091CE008EB3843051
:1003500019F48EE191E012DFFF91EF91BF91AF911F
:100360009F918F917F916F915F914F913F912F91CD
:100370000F900BBE0F900FBE0F901F9018951F93FC
:10038000FC01A18DA150A23028F4B0E0A55EBE4FC3
:100390001C9101C010E0808D823009F41860828DBC
:1003A000873031F0883031F0863029F4126003C094
:1003B000146001C016601092C9001092C80010921B
:1003C000CA002489358946895789CA01B901969599
:1003D000879577956795605C7D4B804F9F4F0FD6D3
:1003E000215030403093CD002093CC001093CA00B0
:1003F00082E08093C80088E98093C9001F91089526
:10040000923029F0933041F09130E9F417C02EE397
:1004100030E0EAEAF0E01BC0813041F0813018F0B2
:10042000823089F406C0E8EEF0E005C0ECEEF0E0C2
:1004300002C0E6E0F1E0249130E009C022E130E0C2
:10044000E8E9F0E004C020E030E0E0E0F0E0DA01CC
:100450001196FC93EE93C9010895982F2CC0292F73
:100460002F702093E900981739F07091EC002091DB
:10047000ED005091F00003C0242F762F50E021FFB3
:1004800019C03091EB003E7F3093EB003091ED00CE
:100490003D7F3093ED003091EB0031603093EB0005
:1004A0007093EC002093ED005093F0002091EE004B
:1004B00027FF08C09F5F973090F28F708093E9000C
:1004C00081E0089580E00895EF92FF920F931F93CB
:1004D000CF93DF93162FE82EE7017E01F92EE70177
:1004E00000E02AC09881992329F16B81E981FA8182
:1004F0002C81892F8F70873018F56295660F660FF3
:10050000607C991F9927991F692B223010F096E083
:1005100001C092E028E030E040E003C04F5F220FCE
:10052000331F2E173F07D0F34295407F492B95DFAD
:10053000882331F00F5F25960117A0F281E001C0FA
:1005400080E0DF91CF911F910F91FF90EF90089580
:1005500080913A0287FF11C003C08EB38823B1F0A7
:100560008091E80082FFF9CF8091E8008B7780933B
:10057000E80008958EB3882349F08091E80080FF59
:10058000F9CF8091E8008E778093E80008958091FC
:10059000E4009091E50044E62091EC0020FF25C0A6
:1005A0002091E80020FD15C02EB32223A1F02530B4
:1005B000A1F02091EB0025FD12C02091E4003091C4
:1005C000E5002817390741F3442359F04150C90188
:1005D000E3CF80E0089582E0089583E0089581E00C
:1005E000089584E0089580E008952091E80022FFB6
:1005F000DBCFF9CF0F931F93CF93DF9348D04FD02A
:10060000C8EDD0E088818F7788838881806888836F
:1006100088818F7D8883E7EDF0E08081806880832A
:1006200019BC1EBA1092360210923802109237028C
:1006300000EE10E0F80180818B7F808388818160EB
:10064000888380E060E042E008DFE1EEF0E0808156
:100650008E7F8083E2EEF0E0808181608083808104
:1006600088608083F80180818E7F808388818061AB
:100670008883DF91CF911F910F910895E7EDF0E00E
:1006800080818160808381E080933902B3CFE8ED7F
:10069000F0E080818C7F80831092E20008951092B8
:1006A000DA001092E10008951F920F920FB60F9298
:1006B0000BB60F9211242F933F934F935F936F9339
:1006C0007F938F939F93AF93BF93EF93FF9380910B
:1006D000E10082FF0AC08091E20082FF06C08091A3
:1006E000E1008B7F8093E10001D38091DA0080FFED
:1006F0001BC08091D80080FF17C08091DA008E7FE8
:100700008093DA008091D90080FF0BC08CE089BD16
:100710008EE089BD09B400FEFDCF81E08EBBF1DD26
:1007200003C019BC1EBAEFDD8091E10080FF17C045
:100730008091E20080FF13C08091E2008E7F809361
:10074000E2008091E20080618093E2008091D80015
:1007500080628093D80019BC85E08EBBC7D280919F
:10076000E10084FF2CC08091E20084FF28C08CE06F
:1007700089BD8EE089BD09B400FEFDCF8091D8000F
:100780008F7D8093D8008091E1008F7E8093E1007F
:100790008091E2008F7E8093E2008091E200816090
:1007A0008093E20080913602882321F48091E30057
:1007B00087FF02C084E001C081E08EBB97D28091A8
:1007C000E10083FF26C08091E20083FF22C0809178
:1007D000E100877F8093E10082E08EBB10923602B9
:1007E0008091E1008E7F8093E1008091E2008E7F16
:1007F0008093E2008091E20080618093E20080E0DB
:1008000060E042E02ADE8091F00088608093F00092
:100810006DD2FF91EF91BF91AF919F918F917F9199
:100820006F915F914F913F912F910F900BBE0F9061
:100830000FBE0F901F9018951F920F920FB60F9238
:100840000BB60F9211241F932F933F934F935F93F7
:100850006F937F938F939F93AF93BF93EF93FF9388
:100860001091E9001F708091EC001092E9008091D6
:10087000F000877F8093F0007894D4D01092E90044
:100880008091F00088608093F0001093E900FF9160
:10089000EF91BF91AF919F918F917F916F915F91F8
:1008A0004F913F912F911F910F900BBE0F900FBE54
:1008B0000F901F901895282F392FF9018091400231
:1008C000909141028617970718F4BC0120E035C0CB
:1008D00061157105D9F78091E8008E778093E80063
:1008E000F5CF8EB38823F1F18530C1F18091E80016
:1008F00083FD36C08091E80082FD2AC08091E80027
:1009000080FF1BC08091F2009091F30006C02191FE
:100910002093F1006150704001966115710519F046
:1009200088309105A0F321E08830910509F020E09E
:100930008091E8008E778093E8006115710589F653
:10094000222379F605C08EB3882361F0853061F0EB
:100950008091E80082FFF7CF80E0089583E008955A
:1009600081E0089582E0089583E00895E82FF92F4B
:1009700080914002909141028617970718F4BC01BC
:1009800020E037C061157105D9F78091E8008E77B6
:100990008093E800F5CF8EB3882309F43FC08530FB
:1009A000C9F18091E80083FD37C08091E80082FDA5
:1009B0002BC08091E80080FF1CC08091F2009091D4
:1009C000F30007C024912093F100319661507040EC
:1009D00001966115710519F08830910598F321E0B1
:1009E0008830910509F020E08091E8008E778093AF
:1009F000E8006115710579F6222369F605C08EB30A
:100A0000882361F0853061F08091E80082FFF7CFA4
:100A100080E0089583E0089581E0089582E00895DC
:100A200083E008950F931F93DF93CF93CDB7DEB785
:100A3000AC970FB6F894DEBF0FBECDBFEAE3F2E08D
:100A40008091F100819322E0E234F207C9F766DC7D
:100A50008091E80083FF31C180913A0220913B02EE
:100A6000253009F484C0263040F42130A1F1213032
:100A700070F0233009F021C12EC0283009F4F0C0F5
:100A8000293009F4FFC0263009F017C193C080381F
:100A900021F0823809F011C108C08091370290918D
:100AA0003802992371F082600CC080913E028F70F1
:100AB0008093E9009091EB0081E095FF80E0109237
:100AC000E9009091E800977F9093E8008093F1000F
:100AD0001092F100D0C0882319F0823009F0EDC0E7
:100AE00090E08F719070009729F08230910509F0A5
:100AF000E4C00BC080913C02813009F0DEC023309D
:100B000009F080E0809338022CC080913C02882359
:100B100041F520913E022F7009F4CFC02093E900E7
:100B20008091EB0080FF1DC080913B02833021F457
:100B30008091EB00806213C08091EB008061809314
:100B4000EB0081E090E002C0880F991F2A95E2F740
:100B50008093EA001092EA008091EB008860809315
:100B6000EB001092E9008091E800877F87C088231E
:100B700009F0A3C010913C021F770FB7F894809141
:100B8000E800877F8093E800E3DC8091E80080FF45
:100B9000FCCF8091E3008078812B8093E300806814
:100BA0008093E300112311F083E001C082E08EBB4B
:100BB0000FBF83C08058823008F07FC080913C0214
:100BC00090913D0223E08C3D920791F583E08C8368
:100BD0008AE28B835FB7F894DE01159680E090E09F
:100BE0004EE061E2E42FF0E060935700E49180FF73
:100BF00003C0E295EF704F5FEF702E2F30E0EA30C8
:100C000018F0295C3F4F02C0205D3F4F2D933D936C
:100C100001968431910531F75FBF8091E800877FAD
:100C20008093E800CE0103966AE270E044DE12C0D1
:100C300060913E02AE014F5F5F4FE2DBBC01009767
:100C400009F43BC08091E800877F8093E8008981A8
:100C50009A818CDE8091E8008B778093E8002DC02C
:100C6000803859F58091E800877F8093E800809173
:100C700036028093F1008091E8008E778093E8003F
:100C800067DC1BC08823C9F490913C029230A8F421
:100C90008091E800877F8093E8009093360258DCCB
:100CA00080913602882321F48091E30087FF02C0FF
:100CB00084E001C081E08EBB28DB8091E80083FFE7
:100CC0000AC08091EB0080628093EB008091E80085
:100CD000877F8093E800AC960FB6F894DEBF0FBE16
:100CE000CDBFCF91DF911F910F91089508951F936C
:100CF0008EB38823A9F08091E9008F709091EC0069
:100D000090FF02C010E801C010E0182B1092E9001B
:100D10008091E80083FF01C085DE1F701093E90019
:100D20001F910895CF93DF93EC018091E80083FF3A
:100D3000A2C0888190E020913E0230913F022817A6
:100D4000390709F098C080913B02813269F0823204
:100D500020F4803209F08FC03CC0823209F46AC0AE
:100D6000833209F088C079C080913A02813A09F053
:100D700082C08091E800877F8093E8008091E8003E
:100D800080FFFCCF8C899D89AE89BF898093F1005B
:100D9000292F3A2F4B2F55272093F1009D014427EF
:100DA00055272093F1008B2F9927AA27BB278093E3
:100DB000F100888D8093F100898D8093F1008A8DF8
:100DC0008093F1008091E8008E778093E800C0DB8B
:100DD00052C080913A02813209F04DC08091E80002
:100DE000877F8093E80004C08EB3882309F443C052
:100DF0008091E80082FFF8CF3091F1002091F1005E
:100E00009091F1008091F1003C8B2D8B9E8B8F8B0C
:100E10008091F100888F8091F100898F8091F1009D
:100E20008A8F8091E8008B778093E80091DBCE0178
:100E3000A6DA21C080913A028132E9F48091E8007B
:100E4000877F8093E80084DB80913C0290913D0293
:100E5000998B888BCE01D2D00EC080913A0281321C
:100E600051F48091E800877F8093E80071DBCE0128
:100E700060913C02C3D0DF91CF910895CF93DF936F
:100E8000EC014096FC018BE0DF011D928A95E9F7A9
:100E900082E08C83898783E08E87CE01019661E0B2
:100EA00013DB882359F0CE01069661E00DDB882321
:100EB00029F0CE010B9661E007DB01C080E0DF91F5
:100EC000CF910895DF93CF930F92CDB7DEB7FC019A
:100ED0008EB38430F9F424893589468957892115E0
:100EE000310541055105B1F081818F708093E90092
:100EF0008091E80085FD0AC08091E8008E7780939C
:100F0000E800698344DB6981882329F46093F10058
:100F100080E001C082E00F90CF91DF910895FC0145
:100F20008EB3843029F5248935894689578921155E
:100F3000310541055105E1F081818F708093E90011
:100F40008091F2009091F3000097A1F09091E80059
:100F50008091E8008E778093E80095FD0DC017DB47
:100F6000882359F49091E8009E779093E8000895C3
:100F700082E0089580E0089580E008952EB3243043
:100F800059F4FC0124893589468957892115310591
:100F90004105510509F0C3CF0895FC018EB384309B
:100FA00049F5248935894689578921153105410537
:100FB000510501F186818F708093E9008091E800EE
:100FC00082FF18C08091F2009091F300009721F009
:100FD0002091F10030E002C02FEF3FEF8091F2004E
:100FE0009091F300009741F48091E8008B77809313
:100FF000E80002C02FEF3FEFC90108950895A1E274
:101000001A2EAA1BBB1BFD010DC0AA1FBB1FEE1F82
:10101000FF1FA217B307E407F50720F0A21BB30BCD
:10102000E40BF50B661F771F881F991F1A9469F749
:1010300060957095809590959B01AC01BD01CF01A5
:061040000895F894FFCFB3
:101046000083100000010410000001820800000166
:0E10560000000000000000000000003020003C
:00000001FF
