:10000000AFC00000CAC00000C8C00000C6C00000E9
:10001000C4C00000C2C00000C0C00000BEC00000DC
:10002000BCC00000BAC0000004C30000B6C000009D
:10003000B4C00000B2C00000B0C00000AEC00000FC
:10004000ACC00000AAC00000A8C00000A6C000000C
:10005000A4C00000E0C00000A0C000009EC00000DE
:100060009CC000009AC0000098C0000096C000002C
:1000700094C0000092C0000090C000008EC000003C
:100080008CC000008AC0000088C0000086C000004C
:1000900084C0000082C000001201000200000008BD
:1000A000EB03472001000102000109027000020178
:1000B00000C0320904000000010100000924010011
:1000C000011E0001010C24020101020001000000D8
:1000D00000092403020101000100090401000001DC
:1000E00002000009040101010102000007240102CD
:1000F0000101001724020101021005401F00112B0D
:100100000022560044AC0080BB000905810D0001AF
:100110000100000725010100000004030904180381
:100120004400650061006E002000430061006D0026
:10013000650072006100000026034C005500460077
:100140004100200041007500640069006F0020003C
:1001500049006E002000440065006D006F00000043
:1001600011241FBECFEFD0E2DEBFCDBF11E0A0E073
:10017000B1E0E6E3F0E100E00BBF02C007900D92B2
:10018000A231B107D9F711E0A2E1B1E001C01D929F
:10019000A232B107E1F739D04CC732CF9BB19F7083
:1001A000982B9BB90895CF93DF9384B7877F84BF43
:1001B00088E10FB6F89480936000109260000FBE43
:1001C00090E080E80FB6F89480936100909361000E
:1001D0000FBE8AB1806F8AB98BB18F708BB96A9864
:1001E000729ACAE7D0E085EA88838298EEE7F0E069
:1001F00080818460808307D282E480937C00888140
:1002000080648883DF91CF910895CDDF80E1C6DFE0
:1002100078943BD5FECF1F920F920FB60F92112408
:100220002F933F934F938F939F938091E9008F700B
:100230009091EC0090FF02C090E801C090E0492F3F
:10024000482B809119018430E9F580910C018823B5
:10025000C9F1809102018F708093E9008091E800DC
:1002600080FF30C090911401892F8F5F809314011B
:100270009F3F51F48091120190911301805090485A
:1002800090931301809312018CB182FD05C080917F
:1002900012019091130102C080E090E08093F10080
:1002A0009093F1002091F2003091F30080910301CE
:1002B000909104012817390729F48091E8008E777E
:1002C0008093E800842F8F708093E9009F918F9135
:1002D0004F913F912F910F900FBE0F901F90189547
:1002E0001F9380EA5BDF12E010936E0020910D01F6
:1002F00030910E0140910F015091100160E472E4C1
:100300008FE090E074D6215027BD14BD15BD1F911C
:10031000089515BC80E142CF80E091E051D680FF86
:1003200002C080E601C080E939CF80E091E0C9C415
:10033000EF92FF920F931F93D801F7018091020172
:10034000481709F048C0213009F045C0613021F05C
:10035000613809F040C02EC0109709F43EC02281D8
:1003600030E040E050E0A90133272227818190E06E
:10037000A0E0B0E0BA2FA92F982F8827282B392B7F
:100380004A2B5B2B808190E0A0E0B0E0282B392B3A
:100390004A2B5B2B20930D0130930E0140930F01EC
:1003A0005093100160E472E48FE090E020D6215079
:1003B00027BD13C0109789F083E090E011969C93BD
:1003C0008E9380910D0190910E0120910F01228357
:1003D0009183808302C080E001C081E01F910F9172
:1003E000FF90EF90089580E00895923029F09330C7
:1003F00041F09130E9F417C020E730E0EAEAF0E09C
:100400001BC0813041F0813018F0823089F406C081
:10041000EAE1F1E005C0EEE1F1E002C0E8E3F1E07D
:10042000249130E009C022E130E0E8E9F0E004C0C6
:1004300020E030E0E0E0F0E0DA011196FC93EE938A
:10044000C9010895982F2CC0292F2F702093E900FF
:10045000981739F07091EC002091ED005091F00068
:1004600003C0242F762F50E021FF19C03091EB00FC
:100470003E7F3093EB003091ED003D7F3093ED00F7
:100480003091EB0031603093EB007093EC002093DF
:10049000ED005093F0002091EE0027FF08C09F5F11
:1004A000973090F28F708093E90081E0089580E0AA
:1004B0000895EF92FF920F931F93CF93DF93162F20
:1004C000E82EE7017E01F92EE70100E02AC09881BD
:1004D000992329F16B81E981FA812C81892F8F7011
:1004E000873018F56295660F660F607C991F992713
:1004F000991F692B223010F096E001C092E028E0AD
:1005000030E040E003C04F5F220F331F2E173F073C
:10051000D0F34295407F492B95DF882331F00F5F60
:1005200025960117A0F281E001C080E0DF91CF9114
:100530001F910F91FF90EF90089580911A0187FF0E
:1005400013C004C0809119018823B9F08091E8009C
:1005500082FFF8CF8091E8008B778093E8000895C0
:1005600080911901882349F08091E80080FFF8CF3D
:100570008091E8008E778093E80008950F931F9391
:10058000CF93DF9349D050D0C8EDD0E088818F77EA
:10059000888388818068888388818F7D8883E7ED60
:1005A000F0E080818068808319BC1092190110925C
:1005B0001501109217011092160100EE10E0F801DB
:1005C00080818B7F808388818160888380E060E088
:1005D00042E038DFE1EEF0E080818E7F8083E2EE62
:1005E000F0E0808181608083808188608083F80171
:1005F00080818E7F8083888180618883DF91CF9125
:100600001F910F910895E7EDF0E080818160808374
:1006100081E080931801B2CFE8EDF0E080818C7F1B
:1006200080831092E20008951092DA001092E100A7
:1006300008951F920F920FB60F920BB60F921124CE
:100640002F933F934F935F936F937F938F939F93DA
:10065000AF93BF93EF93FF938091E10082FF0AC0B5
:100660008091E20082FF06C08091E1008B7F809341
:10067000E1000AD38091DA0080FF1DC08091D8008C
:1006800080FF19C08091DA008E7F8093DA0080911C
:10069000D90080FF0CC08CE089BD8EE089BD09B413
:1006A00000FEFDCF81E0809319011ADE04C019BC61
:1006B000109219012EDE8091E10080FF18C0809118
:1006C000E20080FF14C08091E2008E7F8093E20000
:1006D0008091E20080618093E2008091D800806286
:1006E0008093D80019BC85E080931901CDD2809108
:1006F000E10084FF2DC08091E20084FF29C08CE0DE
:1007000089BD8EE089BD09B400FEFDCF8091D8007F
:100710008F7D8093D8008091E1008F7E8093E100EF
:100720008091E2008F7E8093E2008091E200816000
:100730008093E20080911501882321F48091E300E9
:1007400087FF02C084E001C081E0809319019CD240
:100750008091E10083FF22C08091E20083FF1EC0F0
:100760008091E100877F8093E10082E0809319010E
:10077000109215018091E1008E7F8093E1008091BD
:10078000E2008E7F8093E2008091E200806180939E
:10079000E20080E060E042E055DE76D2FF91EF912A
:1007A000BF91AF919F918F917F916F915F914F9189
:1007B0003F912F910F900BBE0F900FBE0F901F9087
:1007C0001895282F392FF90180912001909121014E
:1007D0008617970718F4BC0120E037C06115710532
:1007E000D9F78091E8008E778093E800F5CF80916B
:1007F0001901882309F43FC08530C9F18091E800D0
:1008000083FD37C08091E80082FD2BC08091E80015
:1008100080FF1BC08091F2009091F30006C02191EF
:100820002093F1006150704001966115710519F037
:1008300088309105A0F321E08830910509F020E08F
:100840008091E8008E778093E8006115710579F654
:10085000222369F606C080911901882361F0853052
:1008600061F08091E80082FFF6CF80E0089583E098
:10087000089581E0089582E0089583E00895611568
:10088000710531F520C0209119012223A9F12530ED
:1008900079F12091E80023FD2DC02091E80022FF8E
:1008A000F2CFE82FF92F07C08091F1008193CF019B
:1008B0006150704041F0CF012091F2003091F3007F
:1008C0002115310589F72091E8002B772093E80066
:1008D00061157105C1F606C080911901882361F088
:1008E000853061F08091E80080FFF6CF80E00895C8
:1008F00083E0089581E0089582E0089583E00895FB
:10090000E82FF92F809120019091210186179707F8
:1009100018F4BC0120E038C061157105D9F7809149
:10092000E8008E778093E800F5CF80911901882345
:1009300009F440C08530D1F18091E80083FD38C0D2
:100940008091E80082FD2CC08091E80080FF1CC0EF
:100950008091F2009091F30007C024912093F10060
:1009600031966150704001966115710519F088301B
:10097000910598F321E08830910509F020E08091FD
:10098000E8008E778093E8006115710571F62223E7
:1009900061F606C080911901882361F0853061F00D
:1009A0008091E80082FFF6CF80E0089583E008950B
:1009B00081E0089582E0089583E008950F931F93E6
:1009C000DF93CF93CDB7DEB7AC970FB6F894DEBF09
:1009D0000FBECDBFEAE1F1E08091F100819321E00B
:1009E000E232F207C9F7A1DC8091E80083FF33C14E
:1009F00080911A0120911B01253009F484C0263012
:100A000040F42130A1F1213070F0233009F023C1EE
:100A10002EC0283009F4F1C0293009F400C1263075
:100A200009F019C194C0803821F0823809F013C14F
:100A300008C08091160190911701992371F082608E
:100A40000CC080911E018F708093E9009091EB00A3
:100A500081E095FF80E01092E9009091E800977F97
:100A60009093E8008093F1001092F100D1C08823A8
:100A700019F0823009F0EFC090E08F71907000970C
:100A800029F08230910509F0E6C00BC080911C016D
:100A9000813009F0E0C0233009F080E08093170135
:100AA0002CC080911C01882341F520911E012F70DC
:100AB00009F4D1C02093E9008091EB0080FF1DC0B4
:100AC00080911B01833021F48091EB00806213C080
:100AD0008091EB0080618093EB0081E090E002C0A8
:100AE000880F991F2A95E2F78093EA001092EA0096
:100AF0008091EB0088608093EB001092E900809178
:100B0000E800877F88C0882309F0A5C010911C01E8
:100B10001F770FB7F8948091E800877F8093E800F3
:100B20000CDD8091E80080FFFCCF8091E3008078AD
:100B3000812B8093E30080688093E300112311F000
:100B400083E001C082E0809319010FBF84C0805808
:100B5000823008F080C080911C0190911D0123E03B
:100B60008C3D920791F583E08C838AE28B835FB79B
:100B7000F894DE01159680E090E04EE061E2E42F0B
:100B8000F0E060935700E49180FF03C0E295EF70BE
:100B90004F5FEF702E2F30E0EA3018F0295C3F4FA6
:100BA00002C0205D3F4F2D933D9301968431910506
:100BB00031F75FBF8091E800877F8093E800CE0126
:100BC00003966AE270E0FDDD12C060911E01AE0185
:100BD0004F5F5F4F0ADCBC01009709F43CC0809175
:100BE000E800877F8093E80089819A8189DE80917F
:100BF000E8008B778093E8002EC0803861F5809103
:100C0000E800877F8093E800809115018093F100D0
:100C10008091E8008E778093E8008FDC1CC08823E9
:100C2000D1F490911C019230B0F48091E800877F5C
:100C30008093E8009093150180DC80911501882352
:100C400021F48091E30087FF02C084E001C081E0CD
:100C50008093190161DB8091E80083FF0AC08091D5
:100C6000EB0080628093EB008091E800877F8093A7
:100C7000E800AC960FB6F894DEBF0FBECDBFCF91A3
:100C8000DF911F910F91089508951F93809119018D
:100C90008823A9F08091E9008F709091EC0090FF7B
:100CA00002C010E801C010E0182B1092E9008091FA
:100CB000E80083FF01C082DE1F701093E9001F91DE
:100CC00008952F923F924F925F926F927F928F92F0
:100CD0009F92AF92BF92CF92DF92EF92FF920F93CB
:100CE0001F93DF93CF9300D0CDB7DEB75C012DB655
:100CF0003EB68091E80083FF49C120911A01822FFE
:100D000090E08F7190708130910541F430911E0117
:100D1000F5014081341779F041810AC08230910594
:100D200051F430911E01F5014281341721F04781C1
:100D3000341709F02BC1D0901B01FD2DFB3099F029
:100D4000FC3030F42D2D2150243008F01FC12AC072
:100D50003D2D313808F41AC1353808F4B0C03F3F92
:100D600009F014C114C0213009F010C18091E800CD
:100D7000877F8093E800E1DB90911C0181E099235B
:100D800009F480E0F5018487C50130D1FFC021520C
:100D9000223008F0FBC08091E800877F8093E80054
:100DA000CCDBF4C08230910509F042C0C0901E0136
:100DB00080901D01C5016D2D4C2D282D00E010E007
:100DC000EE24FF24B5DA882309F4E0C0EDB6FEB6C0
:100DD0009DB65F2C80912001909121019A83898397
:100DE0002DB73EB7281B390B0FB6F8943EBF0FBE88
:100DF0002DBF6DB67EB60894611C711C8091E80011
:100E0000877F8093E80069817A81C30138DD809112
:100E1000E8008E778093E800C5016D2D4C2D282DBC
:100E20008E010F5F1F4F730183DA392D252DA7C067
:100E30008130910509F0AAC0C0901F0180901C016B
:100E400090901D01C5016D2D4C2D940100E010E026
:100E5000EE24FF24C8DA882309F498C06DB77EB762
:100E60005DB6472E80912001909121019A8389835C
:100E70002DB73EB7281B390B0FB6F8943EBF0FBEF7
:100E80002DBF6DB67EB60894611C711C8091E80080
:100E9000877F8093E80069817A81C301F0DC8091CB
:100EA000E8008E778093E800C5016D2D4C2D9401EC
:100EB0008E010F5F1F4F730196DA920160C082307E
:100EC000910511F56DB77EB7CDB6672E40911E0125
:100ED00020911D0180912001909121019A838983A5
:100EE000681B790B0FB6F8947EBF0FBE6DBF8DB631
:100EF0009EB60894811C911CC5016D2D8E010F5F5B
:100F00001F4F740115DA29C08130910509F03EC0E8
:100F10008DB79EB7CDB6692E40911F0120911C015F
:100F200030911D0180912001909121019A83898344
:100F30006DB77EB7681B790B0FB6F8947EBF0FBEF6
:100F40006DBF8DB69EB60894811C911CC5016D2D98
:100F50008E010F5F1F4F740146DA882371F0809174
:100F6000E800877F8093E80069817A81C40129DCE9
:100F70008091E8008B778093E8003C2D262D832F0D
:100F8000922F0FB6F8949EBF0FBE8DBF0FB6F89488
:100F90003EBE0FBE2DBE0F900F90CF91DF911F91DF
:100FA0000F91FF90EF90DF90CF90BF90AF909F9008
:100FB0008F907F906F905F904F903F902F9008950B
:100FC000CF93DF93EC011C8681E08D838A87CE016D
:100FD000029661E06EDA882329F0CE01079661E07F
:100FE00068DA01C080E0DF91CF9108950895A1E211
:100FF0001A2EAA1BBB1BFD010DC0AA1FBB1FEE1F93
:10100000FF1FA217B307E407F50720F0A21BB30BDD
:10101000E40BF50B661F771F881F991F1A9469F759
:1010200060957095809590959B01AC01BD01CF01B5
:061030000895F894FFCFC3
:101036000001810001000200000000000080BB00EA
:021046000000A8
:00000001FF
